{
  "contracts/Message.sol": {
    "Message": {
      "abi": [
        {
          "inputs": [],
          "stateMutability": "nonpayable",
          "type": "constructor"
        },
        {
          "anonymous": false,
          "inputs": [
            {
              "indexed": false,
              "internalType": "address",
              "name": "previousOwner",
              "type": "address"
            },
            {
              "indexed": false,
              "internalType": "address",
              "name": "newOwner",
              "type": "address"
            }
          ],
          "name": "OwnershipTransfered",
          "type": "event"
        },
        {
          "anonymous": false,
          "inputs": [
            {
              "indexed": false,
              "internalType": "address",
              "name": "setter",
              "type": "address"
            },
            {
              "indexed": false,
              "internalType": "string",
              "name": "message",
              "type": "string"
            }
          ],
          "name": "messageSet",
          "type": "event"
        },
        {
          "inputs": [],
          "name": "getMessage",
          "outputs": [
            {
              "internalType": "string",
              "name": "",
              "type": "string"
            }
          ],
          "stateMutability": "view",
          "type": "function"
        },
        {
          "inputs": [],
          "name": "message",
          "outputs": [
            {
              "internalType": "string",
              "name": "",
              "type": "string"
            }
          ],
          "stateMutability": "view",
          "type": "function"
        },
        {
          "inputs": [],
          "name": "owner",
          "outputs": [
            {
              "internalType": "address",
              "name": "",
              "type": "address"
            }
          ],
          "stateMutability": "view",
          "type": "function"
        },
        {
          "inputs": [
            {
              "internalType": "string",
              "name": "_message",
              "type": "string"
            }
          ],
          "name": "setMessage",
          "outputs": [],
          "stateMutability": "nonpayable",
          "type": "function"
        },
        {
          "inputs": [
            {
              "internalType": "address",
              "name": "_newOwner",
              "type": "address"
            }
          ],
          "name": "transferOwnership",
          "outputs": [],
          "stateMutability": "nonpayable",
          "type": "function"
        }
      ],
      "evm": {
        "bytecode": {
          "linkReferences": {},
          "object": "6080604052348015600f57600080fd5b50336000806101000a81548173ffffffffffffffffffffffffffffffffffffffff021916908373ffffffffffffffffffffffffffffffffffffffff160217905550610d178061005f6000396000f3fe608060405234801561001057600080fd5b50600436106100575760003560e01c8063368b87721461005c5780638da5cb5b14610078578063ce6d41de14610096578063e21f37ce146100b4578063f2fde38b146100d2575b600080fd5b61007660048036038101906100719190610635565b6100ee565b005b6100806101fe565b60405161008d91906106bf565b60405180910390f35b61009e610222565b6040516100ab9190610759565b60405180910390f35b6100bc6102b4565b6040516100c99190610759565b60405180910390f35b6100ec60048036038101906100e791906107a7565b610342565b005b600073ffffffffffffffffffffffffffffffffffffffff163373ffffffffffffffffffffffffffffffffffffffff160361015d576040517f08c379a000000000000000000000000000000000000000000000000000000000815260040161015490610820565b60405180910390fd5b60008054906101000a900473ffffffffffffffffffffffffffffffffffffffff1673ffffffffffffffffffffffffffffffffffffffff163373ffffffffffffffffffffffffffffffffffffffff16146101eb576040517f08c379a00000000000000000000000000000000000000000000000000000000081526004016101e2906108b2565b60405180910390fd5b80600190816101fa9190610ae8565b5050565b60008054906101000a900473ffffffffffffffffffffffffffffffffffffffff1681565b60606001805461023190610901565b80601f016020809104026020016040519081016040528092919081815260200182805461025d90610901565b80156102aa5780601f1061027f576101008083540402835291602001916102aa565b820191906000526020600020905b81548152906001019060200180831161028d57829003601f168201915b5050505050905090565b600180546102c190610901565b80601f01602080910402602001604051908101604052809291908181526020018280546102ed90610901565b801561033a5780601f1061030f5761010080835404028352916020019161033a565b820191906000526020600020905b81548152906001019060200180831161031d57829003601f168201915b505050505081565b60008054906101000a900473ffffffffffffffffffffffffffffffffffffffff1673ffffffffffffffffffffffffffffffffffffffff163373ffffffffffffffffffffffffffffffffffffffff16146103d0576040517f08c379a00000000000000000000000000000000000000000000000000000000081526004016103c790610c06565b60405180910390fd5b600073ffffffffffffffffffffffffffffffffffffffff168173ffffffffffffffffffffffffffffffffffffffff160361043f576040517f08c379a000000000000000000000000000000000000000000000000000000000815260040161043690610c98565b60405180910390fd5b806000806101000a81548173ffffffffffffffffffffffffffffffffffffffff021916908373ffffffffffffffffffffffffffffffffffffffff1602179055507f0d18b5fd22306e373229b9439188228edca81207d1667f604daf6cef8aa3ee6760008054906101000a900473ffffffffffffffffffffffffffffffffffffffff16826040516104d0929190610cb8565b60405180910390a150565b6000604051905090565b600080fd5b600080fd5b600080fd5b600080fd5b6000601f19601f8301169050919050565b7f4e487b7100000000000000000000000000000000000000000000000000000000600052604160045260246000fd5b610542826104f9565b810181811067ffffffffffffffff821117156105615761056061050a565b5b80604052505050565b60006105746104db565b90506105808282610539565b919050565b600067ffffffffffffffff8211156105a05761059f61050a565b5b6105a9826104f9565b9050602081019050919050565b82818337600083830152505050565b60006105d86105d384610585565b61056a565b9050828152602081018484840111156105f4576105f36104f4565b5b6105ff8482856105b6565b509392505050565b600082601f83011261061c5761061b6104ef565b5b813561062c8482602086016105c5565b91505092915050565b60006020828403121561064b5761064a6104e5565b5b600082013567ffffffffffffffff811115610669576106686104ea565b5b61067584828501610607565b91505092915050565b600073ffffffffffffffffffffffffffffffffffffffff82169050919050565b60006106a98261067e565b9050919050565b6106b98161069e565b82525050565b60006020820190506106d460008301846106b0565b92915050565b600081519050919050565b600082825260208201905092915050565b60005b838110156107145780820151818401526020810190506106f9565b60008484015250505050565b600061072b826106da565b61073581856106e5565b93506107458185602086016106f6565b61074e816104f9565b840191505092915050565b600060208201905081810360008301526107738184610720565b905092915050565b6107848161069e565b811461078f57600080fd5b50565b6000813590506107a18161077b565b92915050565b6000602082840312156107bd576107bc6104e5565b5b60006107cb84828501610792565b91505092915050565b7f596f752063616e27742073657420796f7572206f776e206d6573736167650000600082015250565b600061080a601e836106e5565b9150610815826107d4565b602082019050919050565b60006020820190508181036000830152610839816107fd565b9050919050565b7f596f7520617265276e7420746865206f776e6572206f662074686973206d657360008201527f7361676500000000000000000000000000000000000000000000000000000000602082015250565b600061089c6024836106e5565b91506108a782610840565b604082019050919050565b600060208201905081810360008301526108cb8161088f565b9050919050565b7f4e487b7100000000000000000000000000000000000000000000000000000000600052602260045260246000fd5b6000600282049050600182168061091957607f821691505b60208210810361092c5761092b6108d2565b5b50919050565b60008190508160005260206000209050919050565b60006020601f8301049050919050565b600082821b905092915050565b6000600883026109947fffffffffffffffffffffffffffffffffffffffffffffffffffffffffffffffff82610957565b61099e8683610957565b95508019841693508086168417925050509392505050565b6000819050919050565b6000819050919050565b60006109e56109e06109db846109b6565b6109c0565b6109b6565b9050919050565b6000819050919050565b6109ff836109ca565b610a13610a0b826109ec565b848454610964565b825550505050565b600090565b610a28610a1b565b610a338184846109f6565b505050565b5b81811015610a5757610a4c600082610a20565b600181019050610a39565b5050565b601f821115610a9c57610a6d81610932565b610a7684610947565b81016020851015610a85578190505b610a99610a9185610947565b830182610a38565b50505b505050565b600082821c905092915050565b6000610abf60001984600802610aa1565b1980831691505092915050565b6000610ad88383610aae565b9150826002028217905092915050565b610af1826106da565b67ffffffffffffffff811115610b0a57610b0961050a565b5b610b148254610901565b610b1f828285610a5b565b600060209050601f831160018114610b525760008415610b40578287015190505b610b4a8582610acc565b865550610bb2565b601f198416610b6086610932565b60005b82811015610b8857848901518255600182019150602085019450602081019050610b63565b86831015610ba55784890151610ba1601f891682610aae565b8355505b6001600288020188555050505b505050505050565b7f596f7520617265277420746865206f776e657200000000000000000000000000600082015250565b6000610bf06013836106e5565b9150610bfb82610bba565b602082019050919050565b60006020820190508181036000830152610c1f81610be3565b9050919050565b7f596f752063616e2774207472616e73666572206f776e65727368697020746f2060008201527f746865207a65726f000000000000000000000000000000000000000000000000602082015250565b6000610c826028836106e5565b9150610c8d82610c26565b604082019050919050565b60006020820190508181036000830152610cb181610c75565b9050919050565b6000604082019050610ccd60008301856106b0565b610cda60208301846106b0565b939250505056fea26469706673582212208ffcaccc7bddc0f57f3246f9e39798a1d0a2bf9bd0e8a7913e83381808bc5a9864736f6c634300081b0033",
          "opcodes": "PUSH1 0x80 PUSH1 0x40 MSTORE CALLVALUE DUP1 ISZERO PUSH1 0xF JUMPI PUSH1 0x0 DUP1 REVERT JUMPDEST POP CALLER PUSH1 0x0 DUP1 PUSH2 0x100 EXP DUP2 SLOAD DUP2 PUSH20 0xFFFFFFFFFFFFFFFFFFFFFFFFFFFFFFFFFFFFFFFF MUL NOT AND SWAP1 DUP4 PUSH20 0xFFFFFFFFFFFFFFFFFFFFFFFFFFFFFFFFFFFFFFFF AND MUL OR SWAP1 SSTORE POP PUSH2 0xD17 DUP1 PUSH2 0x5F PUSH1 0x0 CODECOPY PUSH1 0x0 RETURN INVALID PUSH1 0x80 PUSH1 0x40 MSTORE CALLVALUE DUP1 ISZERO PUSH2 0x10 JUMPI PUSH1 0x0 DUP1 REVERT JUMPDEST POP PUSH1 0x4 CALLDATASIZE LT PUSH2 0x57 JUMPI PUSH1 0x0 CALLDATALOAD PUSH1 0xE0 SHR DUP1 PUSH4 0x368B8772 EQ PUSH2 0x5C JUMPI DUP1 PUSH4 0x8DA5CB5B EQ PUSH2 0x78 JUMPI DUP1 PUSH4 0xCE6D41DE EQ PUSH2 0x96 JUMPI DUP1 PUSH4 0xE21F37CE EQ PUSH2 0xB4 JUMPI DUP1 PUSH4 0xF2FDE38B EQ PUSH2 0xD2 JUMPI JUMPDEST PUSH1 0x0 DUP1 REVERT JUMPDEST PUSH2 0x76 PUSH1 0x4 DUP1 CALLDATASIZE SUB DUP2 ADD SWAP1 PUSH2 0x71 SWAP2 SWAP1 PUSH2 0x635 JUMP JUMPDEST PUSH2 0xEE JUMP JUMPDEST STOP JUMPDEST PUSH2 0x80 PUSH2 0x1FE JUMP JUMPDEST PUSH1 0x40 MLOAD PUSH2 0x8D SWAP2 SWAP1 PUSH2 0x6BF JUMP JUMPDEST PUSH1 0x40 MLOAD DUP1 SWAP2 SUB SWAP1 RETURN JUMPDEST PUSH2 0x9E PUSH2 0x222 JUMP JUMPDEST PUSH1 0x40 MLOAD PUSH2 0xAB SWAP2 SWAP1 PUSH2 0x759 JUMP JUMPDEST PUSH1 0x40 MLOAD DUP1 SWAP2 SUB SWAP1 RETURN JUMPDEST PUSH2 0xBC PUSH2 0x2B4 JUMP JUMPDEST PUSH1 0x40 MLOAD PUSH2 0xC9 SWAP2 SWAP1 PUSH2 0x759 JUMP JUMPDEST PUSH1 0x40 MLOAD DUP1 SWAP2 SUB SWAP1 RETURN JUMPDEST PUSH2 0xEC PUSH1 0x4 DUP1 CALLDATASIZE SUB DUP2 ADD SWAP1 PUSH2 0xE7 SWAP2 SWAP1 PUSH2 0x7A7 JUMP JUMPDEST PUSH2 0x342 JUMP JUMPDEST STOP JUMPDEST PUSH1 0x0 PUSH20 0xFFFFFFFFFFFFFFFFFFFFFFFFFFFFFFFFFFFFFFFF AND CALLER PUSH20 0xFFFFFFFFFFFFFFFFFFFFFFFFFFFFFFFFFFFFFFFF AND SUB PUSH2 0x15D JUMPI PUSH1 0x40 MLOAD PUSH32 0x8C379A000000000000000000000000000000000000000000000000000000000 DUP2 MSTORE PUSH1 0x4 ADD PUSH2 0x154 SWAP1 PUSH2 0x820 JUMP JUMPDEST PUSH1 0x40 MLOAD DUP1 SWAP2 SUB SWAP1 REVERT JUMPDEST PUSH1 0x0 DUP1 SLOAD SWAP1 PUSH2 0x100 EXP SWAP1 DIV PUSH20 0xFFFFFFFFFFFFFFFFFFFFFFFFFFFFFFFFFFFFFFFF AND PUSH20 0xFFFFFFFFFFFFFFFFFFFFFFFFFFFFFFFFFFFFFFFF AND CALLER PUSH20 0xFFFFFFFFFFFFFFFFFFFFFFFFFFFFFFFFFFFFFFFF AND EQ PUSH2 0x1EB JUMPI PUSH1 0x40 MLOAD PUSH32 0x8C379A000000000000000000000000000000000000000000000000000000000 DUP2 MSTORE PUSH1 0x4 ADD PUSH2 0x1E2 SWAP1 PUSH2 0x8B2 JUMP JUMPDEST PUSH1 0x40 MLOAD DUP1 SWAP2 SUB SWAP1 REVERT JUMPDEST DUP1 PUSH1 0x1 SWAP1 DUP2 PUSH2 0x1FA SWAP2 SWAP1 PUSH2 0xAE8 JUMP JUMPDEST POP POP JUMP JUMPDEST PUSH1 0x0 DUP1 SLOAD SWAP1 PUSH2 0x100 EXP SWAP1 DIV PUSH20 0xFFFFFFFFFFFFFFFFFFFFFFFFFFFFFFFFFFFFFFFF AND DUP2 JUMP JUMPDEST PUSH1 0x60 PUSH1 0x1 DUP1 SLOAD PUSH2 0x231 SWAP1 PUSH2 0x901 JUMP JUMPDEST DUP1 PUSH1 0x1F ADD PUSH1 0x20 DUP1 SWAP2 DIV MUL PUSH1 0x20 ADD PUSH1 0x40 MLOAD SWAP1 DUP2 ADD PUSH1 0x40 MSTORE DUP1 SWAP3 SWAP2 SWAP1 DUP2 DUP2 MSTORE PUSH1 0x20 ADD DUP3 DUP1 SLOAD PUSH2 0x25D SWAP1 PUSH2 0x901 JUMP JUMPDEST DUP1 ISZERO PUSH2 0x2AA JUMPI DUP1 PUSH1 0x1F LT PUSH2 0x27F JUMPI PUSH2 0x100 DUP1 DUP4 SLOAD DIV MUL DUP4 MSTORE SWAP2 PUSH1 0x20 ADD SWAP2 PUSH2 0x2AA JUMP JUMPDEST DUP3 ADD SWAP2 SWAP1 PUSH1 0x0 MSTORE PUSH1 0x20 PUSH1 0x0 KECCAK256 SWAP1 JUMPDEST DUP2 SLOAD DUP2 MSTORE SWAP1 PUSH1 0x1 ADD SWAP1 PUSH1 0x20 ADD DUP1 DUP4 GT PUSH2 0x28D JUMPI DUP3 SWAP1 SUB PUSH1 0x1F AND DUP3 ADD SWAP2 JUMPDEST POP POP POP POP POP SWAP1 POP SWAP1 JUMP JUMPDEST PUSH1 0x1 DUP1 SLOAD PUSH2 0x2C1 SWAP1 PUSH2 0x901 JUMP JUMPDEST DUP1 PUSH1 0x1F ADD PUSH1 0x20 DUP1 SWAP2 DIV MUL PUSH1 0x20 ADD PUSH1 0x40 MLOAD SWAP1 DUP2 ADD PUSH1 0x40 MSTORE DUP1 SWAP3 SWAP2 SWAP1 DUP2 DUP2 MSTORE PUSH1 0x20 ADD DUP3 DUP1 SLOAD PUSH2 0x2ED SWAP1 PUSH2 0x901 JUMP JUMPDEST DUP1 ISZERO PUSH2 0x33A JUMPI DUP1 PUSH1 0x1F LT PUSH2 0x30F JUMPI PUSH2 0x100 DUP1 DUP4 SLOAD DIV MUL DUP4 MSTORE SWAP2 PUSH1 0x20 ADD SWAP2 PUSH2 0x33A JUMP JUMPDEST DUP3 ADD SWAP2 SWAP1 PUSH1 0x0 MSTORE PUSH1 0x20 PUSH1 0x0 KECCAK256 SWAP1 JUMPDEST DUP2 SLOAD DUP2 MSTORE SWAP1 PUSH1 0x1 ADD SWAP1 PUSH1 0x20 ADD DUP1 DUP4 GT PUSH2 0x31D JUMPI DUP3 SWAP1 SUB PUSH1 0x1F AND DUP3 ADD SWAP2 JUMPDEST POP POP POP POP POP DUP2 JUMP JUMPDEST PUSH1 0x0 DUP1 SLOAD SWAP1 PUSH2 0x100 EXP SWAP1 DIV PUSH20 0xFFFFFFFFFFFFFFFFFFFFFFFFFFFFFFFFFFFFFFFF AND PUSH20 0xFFFFFFFFFFFFFFFFFFFFFFFFFFFFFFFFFFFFFFFF AND CALLER PUSH20 0xFFFFFFFFFFFFFFFFFFFFFFFFFFFFFFFFFFFFFFFF AND EQ PUSH2 0x3D0 JUMPI PUSH1 0x40 MLOAD PUSH32 0x8C379A000000000000000000000000000000000000000000000000000000000 DUP2 MSTORE PUSH1 0x4 ADD PUSH2 0x3C7 SWAP1 PUSH2 0xC06 JUMP JUMPDEST PUSH1 0x40 MLOAD DUP1 SWAP2 SUB SWAP1 REVERT JUMPDEST PUSH1 0x0 PUSH20 0xFFFFFFFFFFFFFFFFFFFFFFFFFFFFFFFFFFFFFFFF AND DUP2 PUSH20 0xFFFFFFFFFFFFFFFFFFFFFFFFFFFFFFFFFFFFFFFF AND SUB PUSH2 0x43F JUMPI PUSH1 0x40 MLOAD PUSH32 0x8C379A000000000000000000000000000000000000000000000000000000000 DUP2 MSTORE PUSH1 0x4 ADD PUSH2 0x436 SWAP1 PUSH2 0xC98 JUMP JUMPDEST PUSH1 0x40 MLOAD DUP1 SWAP2 SUB SWAP1 REVERT JUMPDEST DUP1 PUSH1 0x0 DUP1 PUSH2 0x100 EXP DUP2 SLOAD DUP2 PUSH20 0xFFFFFFFFFFFFFFFFFFFFFFFFFFFFFFFFFFFFFFFF MUL NOT AND SWAP1 DUP4 PUSH20 0xFFFFFFFFFFFFFFFFFFFFFFFFFFFFFFFFFFFFFFFF AND MUL OR SWAP1 SSTORE POP PUSH32 0xD18B5FD22306E373229B9439188228EDCA81207D1667F604DAF6CEF8AA3EE67 PUSH1 0x0 DUP1 SLOAD SWAP1 PUSH2 0x100 EXP SWAP1 DIV PUSH20 0xFFFFFFFFFFFFFFFFFFFFFFFFFFFFFFFFFFFFFFFF AND DUP3 PUSH1 0x40 MLOAD PUSH2 0x4D0 SWAP3 SWAP2 SWAP1 PUSH2 0xCB8 JUMP JUMPDEST PUSH1 0x40 MLOAD DUP1 SWAP2 SUB SWAP1 LOG1 POP JUMP JUMPDEST PUSH1 0x0 PUSH1 0x40 MLOAD SWAP1 POP SWAP1 JUMP JUMPDEST PUSH1 0x0 DUP1 REVERT JUMPDEST PUSH1 0x0 DUP1 REVERT JUMPDEST PUSH1 0x0 DUP1 REVERT JUMPDEST PUSH1 0x0 DUP1 REVERT JUMPDEST PUSH1 0x0 PUSH1 0x1F NOT PUSH1 0x1F DUP4 ADD AND SWAP1 POP SWAP2 SWAP1 POP JUMP JUMPDEST PUSH32 0x4E487B7100000000000000000000000000000000000000000000000000000000 PUSH1 0x0 MSTORE PUSH1 0x41 PUSH1 0x4 MSTORE PUSH1 0x24 PUSH1 0x0 REVERT JUMPDEST PUSH2 0x542 DUP3 PUSH2 0x4F9 JUMP JUMPDEST DUP2 ADD DUP2 DUP2 LT PUSH8 0xFFFFFFFFFFFFFFFF DUP3 GT OR ISZERO PUSH2 0x561 JUMPI PUSH2 0x560 PUSH2 0x50A JUMP JUMPDEST JUMPDEST DUP1 PUSH1 0x40 MSTORE POP POP POP JUMP JUMPDEST PUSH1 0x0 PUSH2 0x574 PUSH2 0x4DB JUMP JUMPDEST SWAP1 POP PUSH2 0x580 DUP3 DUP3 PUSH2 0x539 JUMP JUMPDEST SWAP2 SWAP1 POP JUMP JUMPDEST PUSH1 0x0 PUSH8 0xFFFFFFFFFFFFFFFF DUP3 GT ISZERO PUSH2 0x5A0 JUMPI PUSH2 0x59F PUSH2 0x50A JUMP JUMPDEST JUMPDEST PUSH2 0x5A9 DUP3 PUSH2 0x4F9 JUMP JUMPDEST SWAP1 POP PUSH1 0x20 DUP2 ADD SWAP1 POP SWAP2 SWAP1 POP JUMP JUMPDEST DUP3 DUP2 DUP4 CALLDATACOPY PUSH1 0x0 DUP4 DUP4 ADD MSTORE POP POP POP JUMP JUMPDEST PUSH1 0x0 PUSH2 0x5D8 PUSH2 0x5D3 DUP5 PUSH2 0x585 JUMP JUMPDEST PUSH2 0x56A JUMP JUMPDEST SWAP1 POP DUP3 DUP2 MSTORE PUSH1 0x20 DUP2 ADD DUP5 DUP5 DUP5 ADD GT ISZERO PUSH2 0x5F4 JUMPI PUSH2 0x5F3 PUSH2 0x4F4 JUMP JUMPDEST JUMPDEST PUSH2 0x5FF DUP5 DUP3 DUP6 PUSH2 0x5B6 JUMP JUMPDEST POP SWAP4 SWAP3 POP POP POP JUMP JUMPDEST PUSH1 0x0 DUP3 PUSH1 0x1F DUP4 ADD SLT PUSH2 0x61C JUMPI PUSH2 0x61B PUSH2 0x4EF JUMP JUMPDEST JUMPDEST DUP2 CALLDATALOAD PUSH2 0x62C DUP5 DUP3 PUSH1 0x20 DUP7 ADD PUSH2 0x5C5 JUMP JUMPDEST SWAP2 POP POP SWAP3 SWAP2 POP POP JUMP JUMPDEST PUSH1 0x0 PUSH1 0x20 DUP3 DUP5 SUB SLT ISZERO PUSH2 0x64B JUMPI PUSH2 0x64A PUSH2 0x4E5 JUMP JUMPDEST JUMPDEST PUSH1 0x0 DUP3 ADD CALLDATALOAD PUSH8 0xFFFFFFFFFFFFFFFF DUP2 GT ISZERO PUSH2 0x669 JUMPI PUSH2 0x668 PUSH2 0x4EA JUMP JUMPDEST JUMPDEST PUSH2 0x675 DUP5 DUP3 DUP6 ADD PUSH2 0x607 JUMP JUMPDEST SWAP2 POP POP SWAP3 SWAP2 POP POP JUMP JUMPDEST PUSH1 0x0 PUSH20 0xFFFFFFFFFFFFFFFFFFFFFFFFFFFFFFFFFFFFFFFF DUP3 AND SWAP1 POP SWAP2 SWAP1 POP JUMP JUMPDEST PUSH1 0x0 PUSH2 0x6A9 DUP3 PUSH2 0x67E JUMP JUMPDEST SWAP1 POP SWAP2 SWAP1 POP JUMP JUMPDEST PUSH2 0x6B9 DUP2 PUSH2 0x69E JUMP JUMPDEST DUP3 MSTORE POP POP JUMP JUMPDEST PUSH1 0x0 PUSH1 0x20 DUP3 ADD SWAP1 POP PUSH2 0x6D4 PUSH1 0x0 DUP4 ADD DUP5 PUSH2 0x6B0 JUMP JUMPDEST SWAP3 SWAP2 POP POP JUMP JUMPDEST PUSH1 0x0 DUP2 MLOAD SWAP1 POP SWAP2 SWAP1 POP JUMP JUMPDEST PUSH1 0x0 DUP3 DUP3 MSTORE PUSH1 0x20 DUP3 ADD SWAP1 POP SWAP3 SWAP2 POP POP JUMP JUMPDEST PUSH1 0x0 JUMPDEST DUP4 DUP2 LT ISZERO PUSH2 0x714 JUMPI DUP1 DUP3 ADD MLOAD DUP2 DUP5 ADD MSTORE PUSH1 0x20 DUP2 ADD SWAP1 POP PUSH2 0x6F9 JUMP JUMPDEST PUSH1 0x0 DUP5 DUP5 ADD MSTORE POP POP POP POP JUMP JUMPDEST PUSH1 0x0 PUSH2 0x72B DUP3 PUSH2 0x6DA JUMP JUMPDEST PUSH2 0x735 DUP2 DUP6 PUSH2 0x6E5 JUMP JUMPDEST SWAP4 POP PUSH2 0x745 DUP2 DUP6 PUSH1 0x20 DUP7 ADD PUSH2 0x6F6 JUMP JUMPDEST PUSH2 0x74E DUP2 PUSH2 0x4F9 JUMP JUMPDEST DUP5 ADD SWAP2 POP POP SWAP3 SWAP2 POP POP JUMP JUMPDEST PUSH1 0x0 PUSH1 0x20 DUP3 ADD SWAP1 POP DUP2 DUP2 SUB PUSH1 0x0 DUP4 ADD MSTORE PUSH2 0x773 DUP2 DUP5 PUSH2 0x720 JUMP JUMPDEST SWAP1 POP SWAP3 SWAP2 POP POP JUMP JUMPDEST PUSH2 0x784 DUP2 PUSH2 0x69E JUMP JUMPDEST DUP2 EQ PUSH2 0x78F JUMPI PUSH1 0x0 DUP1 REVERT JUMPDEST POP JUMP JUMPDEST PUSH1 0x0 DUP2 CALLDATALOAD SWAP1 POP PUSH2 0x7A1 DUP2 PUSH2 0x77B JUMP JUMPDEST SWAP3 SWAP2 POP POP JUMP JUMPDEST PUSH1 0x0 PUSH1 0x20 DUP3 DUP5 SUB SLT ISZERO PUSH2 0x7BD JUMPI PUSH2 0x7BC PUSH2 0x4E5 JUMP JUMPDEST JUMPDEST PUSH1 0x0 PUSH2 0x7CB DUP5 DUP3 DUP6 ADD PUSH2 0x792 JUMP JUMPDEST SWAP2 POP POP SWAP3 SWAP2 POP POP JUMP JUMPDEST PUSH32 0x596F752063616E27742073657420796F7572206F776E206D6573736167650000 PUSH1 0x0 DUP3 ADD MSTORE POP JUMP JUMPDEST PUSH1 0x0 PUSH2 0x80A PUSH1 0x1E DUP4 PUSH2 0x6E5 JUMP JUMPDEST SWAP2 POP PUSH2 0x815 DUP3 PUSH2 0x7D4 JUMP JUMPDEST PUSH1 0x20 DUP3 ADD SWAP1 POP SWAP2 SWAP1 POP JUMP JUMPDEST PUSH1 0x0 PUSH1 0x20 DUP3 ADD SWAP1 POP DUP2 DUP2 SUB PUSH1 0x0 DUP4 ADD MSTORE PUSH2 0x839 DUP2 PUSH2 0x7FD JUMP JUMPDEST SWAP1 POP SWAP2 SWAP1 POP JUMP JUMPDEST PUSH32 0x596F7520617265276E7420746865206F776E6572206F662074686973206D6573 PUSH1 0x0 DUP3 ADD MSTORE PUSH32 0x7361676500000000000000000000000000000000000000000000000000000000 PUSH1 0x20 DUP3 ADD MSTORE POP JUMP JUMPDEST PUSH1 0x0 PUSH2 0x89C PUSH1 0x24 DUP4 PUSH2 0x6E5 JUMP JUMPDEST SWAP2 POP PUSH2 0x8A7 DUP3 PUSH2 0x840 JUMP JUMPDEST PUSH1 0x40 DUP3 ADD SWAP1 POP SWAP2 SWAP1 POP JUMP JUMPDEST PUSH1 0x0 PUSH1 0x20 DUP3 ADD SWAP1 POP DUP2 DUP2 SUB PUSH1 0x0 DUP4 ADD MSTORE PUSH2 0x8CB DUP2 PUSH2 0x88F JUMP JUMPDEST SWAP1 POP SWAP2 SWAP1 POP JUMP JUMPDEST PUSH32 0x4E487B7100000000000000000000000000000000000000000000000000000000 PUSH1 0x0 MSTORE PUSH1 0x22 PUSH1 0x4 MSTORE PUSH1 0x24 PUSH1 0x0 REVERT JUMPDEST PUSH1 0x0 PUSH1 0x2 DUP3 DIV SWAP1 POP PUSH1 0x1 DUP3 AND DUP1 PUSH2 0x919 JUMPI PUSH1 0x7F DUP3 AND SWAP2 POP JUMPDEST PUSH1 0x20 DUP3 LT DUP2 SUB PUSH2 0x92C JUMPI PUSH2 0x92B PUSH2 0x8D2 JUMP JUMPDEST JUMPDEST POP SWAP2 SWAP1 POP JUMP JUMPDEST PUSH1 0x0 DUP2 SWAP1 POP DUP2 PUSH1 0x0 MSTORE PUSH1 0x20 PUSH1 0x0 KECCAK256 SWAP1 POP SWAP2 SWAP1 POP JUMP JUMPDEST PUSH1 0x0 PUSH1 0x20 PUSH1 0x1F DUP4 ADD DIV SWAP1 POP SWAP2 SWAP1 POP JUMP JUMPDEST PUSH1 0x0 DUP3 DUP3 SHL SWAP1 POP SWAP3 SWAP2 POP POP JUMP JUMPDEST PUSH1 0x0 PUSH1 0x8 DUP4 MUL PUSH2 0x994 PUSH32 0xFFFFFFFFFFFFFFFFFFFFFFFFFFFFFFFFFFFFFFFFFFFFFFFFFFFFFFFFFFFFFFFF DUP3 PUSH2 0x957 JUMP JUMPDEST PUSH2 0x99E DUP7 DUP4 PUSH2 0x957 JUMP JUMPDEST SWAP6 POP DUP1 NOT DUP5 AND SWAP4 POP DUP1 DUP7 AND DUP5 OR SWAP3 POP POP POP SWAP4 SWAP3 POP POP POP JUMP JUMPDEST PUSH1 0x0 DUP2 SWAP1 POP SWAP2 SWAP1 POP JUMP JUMPDEST PUSH1 0x0 DUP2 SWAP1 POP SWAP2 SWAP1 POP JUMP JUMPDEST PUSH1 0x0 PUSH2 0x9E5 PUSH2 0x9E0 PUSH2 0x9DB DUP5 PUSH2 0x9B6 JUMP JUMPDEST PUSH2 0x9C0 JUMP JUMPDEST PUSH2 0x9B6 JUMP JUMPDEST SWAP1 POP SWAP2 SWAP1 POP JUMP JUMPDEST PUSH1 0x0 DUP2 SWAP1 POP SWAP2 SWAP1 POP JUMP JUMPDEST PUSH2 0x9FF DUP4 PUSH2 0x9CA JUMP JUMPDEST PUSH2 0xA13 PUSH2 0xA0B DUP3 PUSH2 0x9EC JUMP JUMPDEST DUP5 DUP5 SLOAD PUSH2 0x964 JUMP JUMPDEST DUP3 SSTORE POP POP POP POP JUMP JUMPDEST PUSH1 0x0 SWAP1 JUMP JUMPDEST PUSH2 0xA28 PUSH2 0xA1B JUMP JUMPDEST PUSH2 0xA33 DUP2 DUP5 DUP5 PUSH2 0x9F6 JUMP JUMPDEST POP POP POP JUMP JUMPDEST JUMPDEST DUP2 DUP2 LT ISZERO PUSH2 0xA57 JUMPI PUSH2 0xA4C PUSH1 0x0 DUP3 PUSH2 0xA20 JUMP JUMPDEST PUSH1 0x1 DUP2 ADD SWAP1 POP PUSH2 0xA39 JUMP JUMPDEST POP POP JUMP JUMPDEST PUSH1 0x1F DUP3 GT ISZERO PUSH2 0xA9C JUMPI PUSH2 0xA6D DUP2 PUSH2 0x932 JUMP JUMPDEST PUSH2 0xA76 DUP5 PUSH2 0x947 JUMP JUMPDEST DUP2 ADD PUSH1 0x20 DUP6 LT ISZERO PUSH2 0xA85 JUMPI DUP2 SWAP1 POP JUMPDEST PUSH2 0xA99 PUSH2 0xA91 DUP6 PUSH2 0x947 JUMP JUMPDEST DUP4 ADD DUP3 PUSH2 0xA38 JUMP JUMPDEST POP POP JUMPDEST POP POP POP JUMP JUMPDEST PUSH1 0x0 DUP3 DUP3 SHR SWAP1 POP SWAP3 SWAP2 POP POP JUMP JUMPDEST PUSH1 0x0 PUSH2 0xABF PUSH1 0x0 NOT DUP5 PUSH1 0x8 MUL PUSH2 0xAA1 JUMP JUMPDEST NOT DUP1 DUP4 AND SWAP2 POP POP SWAP3 SWAP2 POP POP JUMP JUMPDEST PUSH1 0x0 PUSH2 0xAD8 DUP4 DUP4 PUSH2 0xAAE JUMP JUMPDEST SWAP2 POP DUP3 PUSH1 0x2 MUL DUP3 OR SWAP1 POP SWAP3 SWAP2 POP POP JUMP JUMPDEST PUSH2 0xAF1 DUP3 PUSH2 0x6DA JUMP JUMPDEST PUSH8 0xFFFFFFFFFFFFFFFF DUP2 GT ISZERO PUSH2 0xB0A JUMPI PUSH2 0xB09 PUSH2 0x50A JUMP JUMPDEST JUMPDEST PUSH2 0xB14 DUP3 SLOAD PUSH2 0x901 JUMP JUMPDEST PUSH2 0xB1F DUP3 DUP3 DUP6 PUSH2 0xA5B JUMP JUMPDEST PUSH1 0x0 PUSH1 0x20 SWAP1 POP PUSH1 0x1F DUP4 GT PUSH1 0x1 DUP2 EQ PUSH2 0xB52 JUMPI PUSH1 0x0 DUP5 ISZERO PUSH2 0xB40 JUMPI DUP3 DUP8 ADD MLOAD SWAP1 POP JUMPDEST PUSH2 0xB4A DUP6 DUP3 PUSH2 0xACC JUMP JUMPDEST DUP7 SSTORE POP PUSH2 0xBB2 JUMP JUMPDEST PUSH1 0x1F NOT DUP5 AND PUSH2 0xB60 DUP7 PUSH2 0x932 JUMP JUMPDEST PUSH1 0x0 JUMPDEST DUP3 DUP2 LT ISZERO PUSH2 0xB88 JUMPI DUP5 DUP10 ADD MLOAD DUP3 SSTORE PUSH1 0x1 DUP3 ADD SWAP2 POP PUSH1 0x20 DUP6 ADD SWAP5 POP PUSH1 0x20 DUP2 ADD SWAP1 POP PUSH2 0xB63 JUMP JUMPDEST DUP7 DUP4 LT ISZERO PUSH2 0xBA5 JUMPI DUP5 DUP10 ADD MLOAD PUSH2 0xBA1 PUSH1 0x1F DUP10 AND DUP3 PUSH2 0xAAE JUMP JUMPDEST DUP4 SSTORE POP JUMPDEST PUSH1 0x1 PUSH1 0x2 DUP9 MUL ADD DUP9 SSTORE POP POP POP JUMPDEST POP POP POP POP POP POP JUMP JUMPDEST PUSH32 0x596F7520617265277420746865206F776E657200000000000000000000000000 PUSH1 0x0 DUP3 ADD MSTORE POP JUMP JUMPDEST PUSH1 0x0 PUSH2 0xBF0 PUSH1 0x13 DUP4 PUSH2 0x6E5 JUMP JUMPDEST SWAP2 POP PUSH2 0xBFB DUP3 PUSH2 0xBBA JUMP JUMPDEST PUSH1 0x20 DUP3 ADD SWAP1 POP SWAP2 SWAP1 POP JUMP JUMPDEST PUSH1 0x0 PUSH1 0x20 DUP3 ADD SWAP1 POP DUP2 DUP2 SUB PUSH1 0x0 DUP4 ADD MSTORE PUSH2 0xC1F DUP2 PUSH2 0xBE3 JUMP JUMPDEST SWAP1 POP SWAP2 SWAP1 POP JUMP JUMPDEST PUSH32 0x596F752063616E2774207472616E73666572206F776E65727368697020746F20 PUSH1 0x0 DUP3 ADD MSTORE PUSH32 0x746865207A65726F000000000000000000000000000000000000000000000000 PUSH1 0x20 DUP3 ADD MSTORE POP JUMP JUMPDEST PUSH1 0x0 PUSH2 0xC82 PUSH1 0x28 DUP4 PUSH2 0x6E5 JUMP JUMPDEST SWAP2 POP PUSH2 0xC8D DUP3 PUSH2 0xC26 JUMP JUMPDEST PUSH1 0x40 DUP3 ADD SWAP1 POP SWAP2 SWAP1 POP JUMP JUMPDEST PUSH1 0x0 PUSH1 0x20 DUP3 ADD SWAP1 POP DUP2 DUP2 SUB PUSH1 0x0 DUP4 ADD MSTORE PUSH2 0xCB1 DUP2 PUSH2 0xC75 JUMP JUMPDEST SWAP1 POP SWAP2 SWAP1 POP JUMP JUMPDEST PUSH1 0x0 PUSH1 0x40 DUP3 ADD SWAP1 POP PUSH2 0xCCD PUSH1 0x0 DUP4 ADD DUP6 PUSH2 0x6B0 JUMP JUMPDEST PUSH2 0xCDA PUSH1 0x20 DUP4 ADD DUP5 PUSH2 0x6B0 JUMP JUMPDEST SWAP4 SWAP3 POP POP POP JUMP INVALID LOG2 PUSH5 0x6970667358 0x22 SLT KECCAK256 DUP16 0xFC 0xAC 0xCC PUSH28 0xDDC0F57F3246F9E39798A1D0A2BF9BD0E8A7913E83381808BC5A9864 PUSH20 0x6F6C634300081B00330000000000000000000000 "
        },
        "methodIdentifiers": {
          "getMessage()": "ce6d41de",
          "message()": "e21f37ce",
          "owner()": "8da5cb5b",
          "setMessage(string)": "368b8772",
          "transferOwnership(address)": "f2fde38b"
        }
      }
    }
  }
}